:100000000C9446000C9465000C9465000C946500FB
:100010000C9465000C9465000C9465000C946500CC
:100020000C9465000C9465000C9465000C946500BC
:100030000C9465000C9465000C9465000C946500AC
:100040000C9465000C9465000C9465000C9465009C
:100050000C9465000C9465000C9465000C9465008C
:100060000C9465000C9465000C9465000C9465007C
:100070000C9465000C9465000C9465000C9465006C
:100080000C9465000C9465000C94650011241FBE4F
:10009000CFEFD0E1DEBFCDBF11E0A0E0B1E0E2ECF8
:1000A000F1E000E00BBF02C007900D92A030B10755
:1000B000D9F711E0A0E0B1E001C01D92A030B10776
:1000C000E1F70E94AF000C94E0000C940000CF9385
:1000D000DF93CDB7DEB722970FB6F894DEBF0FBE21
:1000E000CDBF1A82198205C089819A8101969A83AF
:1000F000898389819A812AEE81369207A8F3229614
:100100000FB6F894DEBF0FBECDBFDF91CF9108953B
:10011000CF93DF93CDB7DEB7E2E3F0E08081806874
:100120008083E4E3F0E08FEF8083E1E3F0E080811F
:100130008F778083DF91CF910895CF93DF93CDB7F1
:10014000DEB7E5E3F0E010820E946700E5E3F0E04F
:100150008FEF80830E946700DF91CF910895CF9346
:10016000DF93CDB7DEB722970FB6F894DEBF0FBE90
:10017000CDBF1A8219820E948800E5E3F0E08FEF7C
:10018000808300C0E0E3F0E080818078882349F438
:100190008A81882331F40E949D0081E08A8319823C
:1001A000F1CFE0E3F0E080818078882359F3898102
:1001B000882341F70E949D0081E089831A82E2CF63
:0201C000FFCF6F
:00000001FF
