:100000000C9446000C9463000C9463000C94630001
:100010000C9463000C9463000C9463000C946300D4
:100020000C9463000C9463000C9463000C946300C4
:100030000C9463000C9463000C9463000C946300B4
:100040000C9463000C9463000C9463000C946300A4
:100050000C9463000C9463000C9463000C94630094
:100060000C9463000C9463000C9463000C94630084
:100070000C9463000C9463000C9463000C94630074
:100080000C9463000C9463000C94630011241FBE55
:10009000CFEFD0E1DEBFCDBF11E0A0E0B1E0EEEFE9
:1000A000F6E000E00BBF02C007900D92A030B10750
:1000B000D9F711E0A0E0B1E001C01D92A030B10776
:1000C000E1F70C9465000C940000CF93DF93CDB75B
:1000D000DEB721970FB6F894DEBF0FBECDBF0E94EA
:1000E000AD01E5E3F0E0808181608083E5E3F0E04D
:1000F000808182608083E5E3F0E08081846080839A
:10010000E5E3F0E080818860808300C00E943402D3
:10011000898389818823D1F389818033A9F4E5E338
:10012000F0E0808181608083E5E3F0E0808182609F
:100130008083E5E3F0E0808184608083E5E3F0E0A4
:10014000808188608083E2CF89818133A9F4E5E3EF
:10015000F0E080818E7F8083E5E3F0E08081826043
:100160008083E5E3F0E0808184608083E5E3F0E074
:10017000808188608083CACF89818233A9F4E5E3D6
:10018000F0E0808181608083E5E3F0E080818D7F15
:100190008083E5E3F0E0808184608083E5E3F0E044
:1001A000808188608083B2CF89818333A9F4E5E3BD
:1001B000F0E080818E7F8083E5E3F0E080818D7FB9
:1001C0008083E5E3F0E0808184608083E5E3F0E014
:1001D0008081886080839ACF89818433A9F4E5E3A4
:1001E000F0E0808181608083E5E3F0E080818260DF
:1001F0008083E5E3F0E080818B7F8083E5E3F0E0BE
:1002000080818860808382CF89818533A9F4E5E38A
:10021000F0E080818E7F8083E5E3F0E08081826082
:100220008083E5E3F0E080818B7F8083E5E3F0E08D
:100230008081886080836ACF89818633A9F4E5E371
:10024000F0E0808181608083E5E3F0E080818D7F54
:100250008083E5E3F0E080818B7F8083E5E3F0E05D
:1002600080818860808352CF89818733A9F4E5E358
:10027000F0E080818E7F8083E5E3F0E080818D7FF8
:100280008083E5E3F0E080818B7F8083E5E3F0E02D
:100290008081886080833ACF89818833A9F4E5E33F
:1002A000F0E0808181608083E5E3F0E0808182601E
:1002B0008083E5E3F0E0808184608083E5E3F0E023
:1002C0008081877F808322CF89818933A9F4E5E308
:1002D000F0E080818E7F8083E5E3F0E080818260C2
:1002E0008083E5E3F0E0808184608083E5E3F0E0F3
:1002F0008081877F80830ACF89818A32A9F4E5E3F0
:10030000F0E0808181608083E5E3F0E080818D7F93
:100310008083E5E3F0E0808184608083E5E3F0E0C2
:100320008081877F8083F2CE8981893309F0EECE88
:10033000E5E3F0E080818E7F8083E5E3F0E080817B
:100340008D7F8083E5E3F0E0808184608083E5E356
:10035000F0E08081877F8083D9CECF93DF93CDB7C4
:10036000DEB7EBE3F0E0808181608083EBE3F0E0D7
:10037000808182608083EBE3F0E080818460808311
:10038000EBE3F0E0808188608083EBE3F0E0808144
:1003900080618083EBE3F0E0808180628083EBE327
:1003A000F0E0808180648083EBE3F0E0808180680E
:1003B0008083EAE3F0E080818F7E8083EAE3F0E0EF
:1003C00080818F7D8083EAE3F0E080818F7B808372
:1003D000EAE3F0E0808181608083EAE3F0E08081FD
:1003E00082608083EAE3F0E0808184608083EAE3D6
:1003F000F0E0808188608083E4E3F0E080818160C8
:100400008083E4E3F0E0808182608083E4E3F0E0D5
:10041000808184608083E4E3F0E080818860808371
:10042000DF91CF910895CF93DF93CDB7DEB72297B9
:100430000FB6F894DEBF0FBECDBF1A82198205C079
:1004400089819A8101969A83898389819A8127E19A
:1004500081379207A8F322960FB6F894DEBF0FBE3D
:10046000CDBFDF91CF910895CF93DF93CDB7DEB7A6
:1004700022970FB6F894DEBF0FBECDBFEBE3F0E0DE
:1004800080818E7F8083EBE3F0E0808182608083D7
:10049000EBE3F0E0808184608083EBE3F0E0808137
:1004A00088608083E9E3F0E080818071882369F4CB
:1004B0000E941302E9E3F0E080818071882359F5FE
:1004C00081E390E09A8389830FC1E9E3F0E08081C2
:1004D0008072882369F40E941302E9E3F0E08081CE
:1004E00080728823C1F482E390E09A838983FCC000
:1004F000E9E3F0E080818074882369F40E941302AC
:10050000E9E3F0E080818074882329F483E390E0BC
:100510009A838983E9C0EBE3F0E080818160808386
:10052000EBE3F0E080818D7F8083EBE3F0E080817E
:1005300084608083EBE3F0E0808188608083E9E37E
:10054000F0E080818071882369F40E941302E9E35E
:10055000F0E080818071882359F584E390E09A83EC
:100560008983C2C0E9E3F0E080818072882369F466
:100570000E941302E9E3F0E0808180728823C1F4D5
:1005800085E390E09A838983AFC0E9E3F0E080815E
:100590008074882369F40E941302E9E3F0E080810B
:1005A0008074882329F486E390E09A8389839CC031
:1005B000EBE3F0E0808181608083EBE3F0E0808119
:1005C00082608083EBE3F0E080818B7F8083EBE3CC
:1005D000F0E0808188608083E9E3F0E080818071D1
:1005E000882369F40E941302E9E3F0E080818071BE
:1005F000882359F587E390E09A83898375C0E9E3FE
:10060000F0E080818072882369F40E941302E9E39C
:10061000F0E0808180728823C1F488E390E09A83BF
:10062000898362C0E9E3F0E080818074882369F403
:100630000E941302E9E3F0E080818074882329F4AA
:1006400089E390E09A8389834FC0EBE3F0E08081F7
:1006500081608083EBE3F0E0808182608083EBE364
:10066000F0E0808184608083EBE3F0E08081877F2D
:100670008083E9E3F0E080818071882369F40E943F
:100680001302E9E3F0E080818071882359F58AE262
:1006900090E09A83898328C0E9E3F0E0808180724A
:1006A000882369F40E941302E9E3F0E080818072FC
:1006B0008823C1F480E390E09A83898315C0E9E33D
:1006C000F0E080818074882369F40E941302E9E3DA
:1006D000F0E080818074882329F483E290E09A839B
:1006E000898302C01A82198289819A8122960FB663
:0E06F000F894DEBF0FBECDBFDF91CF9108950D
:00000001FF
