:100000000C9446000C9463000C9463000C94630001
:100010000C9463000C9463000C9463000C946300D4
:100020000C9463000C9463000C9463000C946300C4
:100030000C9463000C9463000C9463000C946300B4
:100040000C9463000C9463000C9463000C946300A4
:100050000C9463000C9463000C9463000C94630094
:100060000C9463000C9463000C9463000C94630084
:100070000C9463000C9463000C9463000C94630074
:100080000C9463000C9463000C94630011241FBE55
:10009000CFEFD0E1DEBFCDBF11E0A0E0B1E0E6E8F8
:1000A000F4E000E00BBF02C007900D92A030B10752
:1000B000D9F711E0A0E0B1E001C01D92A030B10776
:1000C000E1F70C9403020C940000CF93DF93CDB7BB
:1000D000DEB722970FB6F894DEBF0FBECDBF1A82EF
:1000E000198289819A8121E0853F920730F48981C4
:1000F0009A8101969A838983F4CF22960FB6F89459
:10010000DEBF0FBECDBFDF91CF910895CF93DF93B8
:10011000CDB7DEB7809135008B7F8093350080911D
:1001200035008460809335000E9465008091350021
:100130008B7F80933500DF91CF910895CF93DF932C
:10014000CDB7DEB721970FB6F894DEBF0FBECDBF97
:100150008983898180933B00809135008E7F8093D5
:1001600035000E94860021960FB6F894DEBF0FBEC0
:10017000CDBFDF91CF910895CF93DF93CDB7DEB799
:1001800021970FB6F894DEBF0FBECDBF898389815A
:1001900080933B00809135008160809335000E9400
:1001A000860021960FB6F894DEBF0FBECDBFDF915B
:1001B000CF910895CF93DF93CDB7DEB788E30E9448
:1001C0009E008CE00E949E0081E00E949E00DF91D4
:1001D000CF910895CF93DF93CDB7DEB722970FB6B7
:1001E000F894DEBF0FBECDBF9A838983E981FA817F
:1001F0008081882359F0E981FA8180810E94BC00C6
:1002000089819A8101969A838983F0CF22960FB6CD
:10021000F894DEBF0FBECDBFDF91CF910895CF938D
:10022000DF93CDB7DEB780912A00886080932A00E3
:1002300080912A00806180932A00809140008F7B0A
:1002400080934000809140008F7E80934000809199
:1002500040008F7D8093400080914000877F809395
:10026000400080912A008B7F80932A00809140007B
:1002700084608093400080914000826080934000C1
:100280001092400087E48093290080912A008F77A4
:1002900080932A0080912A008F7B80932A0080918E
:1002A0002A008F7D80932A00DF91CF910895CF930C
:1002B000DF93CDB7DEB721970FB6F894DEBF0FBE40
:1002C000CDBF898380912B008072882309F4FACFF7
:1002D000898180932C0080912B008074882309F4FD
:1002E000FACF80912B00806480932B0021960FB66B
:1002F000F894DEBF0FBECDBFDF91CF910895CF93AD
:10030000DF93CDB7DEB722970FB6F894DEBF0FBEEE
:10031000CDBF9A838983E981FA818081882359F04E
:10032000E981FA8180810E94570189819A81019631
:100330009A838983F0CF22960FB6F894DEBF0FBE62
:10034000CDBFDF91CF910895CF93DF93CDB7DEB7C7
:1003500021970FB6F894DEBF0FBECDBF80912B0062
:100360008078882321F080912C00898301C0198234
:100370008981992721960FB6F894DEBF0FBECDBFB5
:10038000DF91CF910895CF93DF93CDB7DEB722975A
:100390000FB6F894DEBF0FBECDBF0E94A4018983C3
:1003A0008981992782959295907F9827807F9827B9
:1003B00020E0820F89830E94A4018A838A81982F7A
:1003C00090538981892B8A838A81992722960FB637
:1003D000F894DEBF0FBECDBFDF91CF910895CF93CC
:1003E000DF93CDB7DEB78FEF80933A008091340072
:1003F0008160809334008091340084608093340065
:10040000DF91CF910895CDEFD0E1DEBFCDBF0E9447
:10041000EF010E940F010E94DA0080E80E949E0016
:100420001A828A818131A0F40E94A4018983898182
:10043000882309F4F9CF89810E94570189810E949C
:10044000BC008FE00E949E008A818F5F8A83E9CF83
:1004500080EC0E949E001A828A818131F0F60E940F
:10046000A40189838981882309F4F9CF89810E94B5
:10047000570189810E94BC008FE00E949E008A8102
:060480008F5F8A83E9CFC3
:00000001FF
