:100000000C9446000C9463000C9463000C94630001
:100010000C9463000C9463000C9463000C946300D4
:100020000C9463000C9463000C9463000C946300C4
:100030000C9463000C9463000C9463000C946300B4
:100040000C9463000C9463000C9463000C946300A4
:100050000C9463000C9463000C9463000C94630094
:100060000C9463000C9463000C9463000C94630084
:100070000C9463000C9463000C9463000C94630074
:100080000C9463000C9463000C94630011241FBE55
:10009000CFEFD0E1DEBFCDBF11E0A0E0B1E0ECE7F3
:1000A000F1E000E00BBF02C007900D92A030B10755
:1000B000D9F711E0A0E0B1E001C01D92A030B10776
:1000C000E1F70C9465000C940000CFEFD0E1DEBFA7
:1000D000CDBF80912A00886080932A0080912A00F9
:1000E000877F80932A0080912A00806180932A0074
:1000F00080912A008F7E80932A0080912A0080625E
:1001000080932A0080912A008F7D80932A0080911D
:100110002A00806480932A0080912A008F7B80933C
:100120002A0080912A00806880932A0080912A000A
:100130008F7780932A0080912A00826080932A0022
:1001400080912A00846080932A0080912A008B7F0E
:1001500080932A0080912A008F7E80932A008091CC
:100160002A008F7D80932A0080912A00877F8093C8
:0C0170002A0080E090E00C94BD00FFCF5E
:00000001FF
