:100000000C942A000C9445000C9445000C94450077
:100010000C9445000C9445000C9445000C9445004C
:100020000C9445000C9445000C9445000C9445003C
:100030000C9445000C9445000C9445000C9445002C
:100040000C9445000C9445000C9445000C947900E8
:100050000C94450011241FBECFE5D4E0DEBFCDBF18
:1000600010E0A0E6B0E0EEE8F1E002C005900D92ED
:10007000A036B107D9F710E0A0E6B0E001C01D92AC
:10008000A136B107E1F70C9447000C940000CFE5CE
:10009000D4E0DEBFCDBF0E94B6000E9491007894EC
:1000A000809160008A30E0F38091350082958695DA
:1000B0008770817080958170982F9295990F907EAE
:1000C000809135008F7D892B80933500809135009C
:1000D00082958F70817080958170982F9295907F16
:1000E000809135008F7E892B8093350010926000BF
:1000F000D7CF78941F920F920FB60F9211248F933F
:10010000CF93DF93CDB7DEB7809160008F5F809390
:100110006000DF91CF918F910F900FBE0F901F90D5
:100120001895CF93DF93CDB7DEB7809153008860E9
:10013000809353008091530081608093530080919D
:1001400053008D7F8093530080915300846080938F
:10015000530083EC80935C00109252008091590010
:10016000826080935900DF91CF910895CF93DF9300
:10017000CDB7DEB7809134008061809334008091E8
:0E0180003400806280933400DF91CF910895A7
:00000001FF
