:100000000C9446000C94D9000C9465000C94650087
:100010000C9465000C9465000C9465000C946500CC
:100020000C9465000C9465000C9465000C946500BC
:100030000C9465000C9465000C9465000C946500AC
:100040000C9465000C9465000C9465000C9465009C
:100050000C9465000C9465000C9465000C9465008C
:100060000C9465000C9465000C9465000C9465007C
:100070000C9465000C9465000C9465000C9465006C
:100080000C9465000C9465000C94650011241FBE4F
:10009000CFEFD0E1DEBFCDBF11E0A0E0B1E0ECE9F1
:1000A000F2E000E00BBF02C007900D92A030B10754
:1000B000D9F711E0A0E0B1E001C01D92A130B10775
:1000C000E1F70E9419010C944D010C940000CF93AC
:1000D000DF93CDB7DEB726970FB6F894DEBF0FBE1D
:1000E000CDBF9A8389837C836B8389819A819E8328
:1000F0008D838D819E8181309105B1F08D819E81AE
:100100008130910530F08D819E8182309105C9F05A
:100110002DC0E5E5F0E08B818370982F937080818E
:100120008C7F892B808322C0E5E5F0E08B81837092
:100130008370982F990F990F8081837F892B8083FB
:1001400015C08B819C818230910531F4E4E5F0E0AB
:1001500080818F7B80830AC08B819C818330910555
:1001600029F4E4E5F0E080818064808326960FB670
:10017000F894DEBF0FBECDBFDF91CF910895CF932E
:10018000DF93CDB7DEB77894EBE5F0E08081829520
:100190008695869583708170992761E070E00E9452
:1001A0006700EBE5F0E0808180648083DF91CF9190
:1001B000089578941F920F920FB60F9211248F9387
:1001C000EF93FF93CF93DF93CDB7DEB7EBE5F0E08E
:1001D00080818F7B808381E080930001DF91CF91CC
:1001E000FF91EF918F910F900FBE0F901F90189578
:1001F000CF93DF93CDB7DEB722970FB6F894DEBF6B
:100200000FBECDBF1A82198205C089819A810196DD
:100210009A83898389819A812AEE81369207A8F38D
:1002200022960FB6F894DEBF0FBECDBFDF91CF91FF
:100230000895CF93DF93CDB7DEB70E943D010E94B2
:10024000BF00E8E3F0E08FEF80831092000100C070
:10025000809100018823E1F310920001A8E3B0E04F
:10026000E8E3F0E0808180958C930E94F800EBE554
:10027000F0E0808180648083EBCFCF93DF93CDB7B4
:10028000DEB7E7E3F0E08FEF8083E2E3F0E0808128
:0C02900084608083DF91CF910895FFCF40
:00000001FF
