:100000000C942A000C9445000C9445000C94450077
:100010000C9445000C9445000C9445000C9445004C
:100020000C9445000C9445000C9445000C9445003C
:100030000C9445000C9445000C9445000C9445002C
:100040000C9445000C9445000C9445000C9445001C
:100050000C94450011241FBECFE5D4E0DEBFCDBF18
:1000600010E0A0E6B0E0E0EEF5E002C005900D92F1
:10007000AC36B107D9F710E0ACE6B0E001C01D9294
:10008000AE36B107E1F70C943F020C940000CF9319
:10009000DF93CDB7DEB725970FB6F894DEBF0FBE5E
:1000A000CDBF89831D821C8289810E94E4008091DA
:1000B000260080648093260080912600807188232A
:1000C00009F4FACF809124008B83809125008A83E4
:1000D000809126008061809326008A8199279D83E4
:1000E0008C838C819D81982F88279D838C838B8125
:1000F000282F33278C819D81822B932B9D838C838A
:100100008C819D8125960FB6F894DEBF0FBECDBFC2
:10011000DF91CF910895CF93DF93CDB7DEB7809174
:100120002600806880932600809126008F7D809332
:1001300026008091260088608093260087E00E9438
:10014000A70081E00E94C400DF91CF910895CF9372
:10015000DF93CDB7DEB721970FB6F894DEBF0FBEA1
:10016000CDBF89838981982F977080912600887FE1
:10017000892B8093260021960FB6F894DEBF0FBE20
:10018000CDBFDF91CF910895CF93DF93CDB7DEB789
:1001900021970FB6F894DEBF0FBECDBF898389814A
:1001A000982F9295990F990F907C809127008F73CB
:1001B000892B8093270021960FB6F894DEBF0FBEDF
:1001C000CDBFDF91CF910895CF93DF93CDB7DEB749
:1001D00021970FB6F894DEBF0FBECDBF898389810A
:1001E000982F9F7180912700807E892B8093270014
:1001F00021960FB6F894DEBF0FBECDBFDF91CF9131
:100200000895CF93DF93CDB7DEB722970FB6F8945A
:10021000DEBF0FBECDBF1A82198289819A8121E08B
:10022000853F920730F489819A8101969A83898368
:10023000F4CF22960FB6F894DEBF0FBECDBFDF918C
:10024000CF910895CF93DF93CDB7DEB7809138007B
:100250008B7F8093380080913800846080933800D1
:100260000E940101809138008B7F80933800DF91DC
:10027000CF910895CF93DF93CDB7DEB721970FB617
:10028000F894DEBF0FBECDBF89838981809335008E
:10029000809138008E7F809338000E942201219641
:1002A0000FB6F894DEBF0FBECDBFDF91CF9108959A
:1002B000CF93DF93CDB7DEB721970FB6F894DEBFAB
:1002C0000FBECDBF8983898180933500809138002E
:1002D0008160809338000E94220121960FB6F89425
:1002E000DEBF0FBECDBFDF91CF910895CF93DF93D7
:1002F000CDB7DEB788E30E943A018CE00E943A0154
:1003000081E00E943A01DF91CF910895CF93DF936E
:10031000CDB7DEB722970FB6F894DEBF0FBECDBFC4
:100320009A838983E981FA818081882359F0E98160
:10033000FA8180810E94580189819A8101969A836D
:100340008983F0CF22960FB6F894DEBF0FBECDBFE3
:10035000DF91CF910895CF93DF93CDB7DEB7239789
:100360000FB6F894DEBF0FBECDBF898389819AE0B6
:10037000692F0E94D002805D8A8389819AE0692F6B
:100380000E94D002892F805D8B838A810E94580150
:100390008B810E94580123960FB6F894DEBF0FBEE2
:1003A000CDBFDF91CF910895CF93DF93CDB7DEB767
:1003B0008091530080648093530080915300886043
:1003C00080935300809153008E7F809353008091DF
:1003D00053008D7F809353008091530084608093FD
:1003E000530010925200809153008F7E80935300EF
:1003F00080915300806280935300DF91CF910895E4
:10040000CF93DF93CDB7DEB78FEF80933B00109291
:100410003A00809137008860809337008FEF809397
:1004200034008091370081608093370080913700DD
:10043000846080933700DF91CF910895CF93DF934D
:10044000CDB7DEB722970FB6F894DEBF0FBECDBF93
:100450001A82198289819A8123EC8135920730F4BE
:1004600089819A8101969A838983F4CF22960FB667
:10047000F894DEBF0FBECDBFDF91CF910895CFE5D9
:10048000D4E0DEBFCDBF0E948B000E9476010E94A7
:10049000000280E80E943A0180E690E00E94860116
:1004A0000E94AF020E94AF0282E00E9447002AE051
:1004B00030E0B9010E94DC02CB0190936D00809383
:1004C0006C0080EC0E943A0180916C000E94AB01AC
:1004D0000E941E020E941E020E941E0280916C0059
:1004E00090916D00009769F080916C0090916D0083
:1004F0008F31910530F48AE080935C000E94D40132
:10050000D3CF80916C0090916D008F31910568F090
:1005100080916C0090916D008333910530F482E3FB
:1005200080935C000E94D401BFCF80916C009091B9
:100530006D008333910568F080916C0090916D009F
:100540008734910530F480E580935C000E94D401EB
:10055000ABCF84E680935C000E94D401A5CFCF93FB
:10056000DF93CDB7DEB722970FB6F894DEBF0FBE8C
:10057000CDBF1A82198289819A812AEE813692072B
:1005800030F489819A8101969A838983F4CF2296E7
:100590000FB6F894DEBF0FBECDBFDF91CF910895A7
:1005A000991B79E004C0991F961708F0961B881FC5
:1005B0007A95C9F780950895AA1BBB1B51E107C026
:1005C000AA1FBB1FA617B70710F0A61BB70B881FE3
:1005D000991F5A95A9F780959095BC01CD01089572
:0C05E000414E414C4F47494E50555400CD
:00000001FF
