:100000000C942A000C9445000C9445000C94450077
:100010000C9445000C9445000C9445000C9445004C
:100020000C9445000C9445000C9445000C9445003C
:100030000C9445000C9445000C9445000C9445002C
:100040000C9445000C9445000C9445000C9445001C
:100050000C94450011241FBECFE5D4E0DEBFCDBF18
:1000600010E0A0E6B0E0E4EBF6E002C005900D92EF
:10007000A037B107D9F710E0A0E7B0E001C01D92AA
:10008000A637B107E1F70C941A020C940000CF9345
:10009000DF93CDB7DEB725970FB6F894DEBF0FBE5E
:1000A000CDBF89831D821C8289810E94E4008091DA
:1000B000260080648093260080912600807188232A
:1000C00009F4FACF809124008B83809125008A83E4
:1000D000809126008061809326008A8199279D83E4
:1000E0008C838C819D81982F88279D838C838B8125
:1000F000282F33278C819D81822B932B9D838C838A
:100100008C819D8125960FB6F894DEBF0FBECDBFC2
:10011000DF91CF910895CF93DF93CDB7DEB7809174
:100120002600806880932600809126008F7D809332
:1001300026008091260088608093260087E00E9438
:10014000A70081E00E94C400DF91CF910895CF9372
:10015000DF93CDB7DEB721970FB6F894DEBF0FBEA1
:10016000CDBF89838981982F977080912600887FE1
:10017000892B8093260021960FB6F894DEBF0FBE20
:10018000CDBFDF91CF910895CF93DF93CDB7DEB789
:1001900021970FB6F894DEBF0FBECDBF898389814A
:1001A000982F9295990F990F907C809127008F73CB
:1001B000892B8093270021960FB6F894DEBF0FBEDF
:1001C000CDBFDF91CF910895CF93DF93CDB7DEB749
:1001D00021970FB6F894DEBF0FBECDBF898389810A
:1001E000982F9F7180912700807E892B8093270014
:1001F00021960FB6F894DEBF0FBECDBFDF91CF9131
:100200000895CF93DF93CDB7DEB722970FB6F8945A
:10021000DEBF0FBECDBF1A82198289819A8121E08B
:10022000853F920730F489819A8101969A83898368
:10023000F4CF22960FB6F894DEBF0FBECDBFDF918C
:10024000CF910895CF93DF93CDB7DEB7809135007E
:100250008B7F8093350080913500846080933500DA
:100260000E940101809135008B7F80933500DF91E2
:10027000CF910895CF93DF93CDB7DEB721970FB617
:10028000F894DEBF0FBECDBF898389818093320091
:10029000809135008E7F809335000E942201219647
:1002A0000FB6F894DEBF0FBECDBFDF91CF9108959A
:1002B000CF93DF93CDB7DEB721970FB6F894DEBFAB
:1002C0000FBECDBF89838981809332008091350034
:1002D0008160809335000E94220121960FB6F89428
:1002E000DEBF0FBECDBFDF91CF910895CF93DF93D7
:1002F000CDB7DEB788E30E943A018CE00E943A0154
:1003000081E00E943A01DF91CF910895CF93DF936E
:10031000CDB7DEB722970FB6F894DEBF0FBECDBFC4
:100320009A838983E981FA818081882359F0E98160
:10033000FA8180810E94580189819A8101969A836D
:100340008983F0CF22960FB6F894DEBF0FBECDBFE3
:10035000DF91CF910895CF93DF93CDB7DEB7239789
:100360000FB6F894DEBF0FBECDBF898389819AE0B6
:10037000692F0E943A03805D8A8389819AE0692F00
:100380000E943A03892F805D8B838A810E945801E5
:100390008B810E94580123960FB6F894DEBF0FBEE2
:1003A000CDBFDF91CF910895CF93DF93CDB7DEB767
:1003B00022970FB6F894DEBF0FBECDBF1A82198206
:1003C00089819A8123EC8135920730F489819A8161
:1003D00001969A838983F4CF22960FB6F894DEBFF4
:1003E0000FBECDBFDF91CF910895CF93DF93CDB7EF
:1003F000DEB78091340082608093340080913400B5
:10040000806280933400809134008068809334004F
:1004100010923B008FEF8093310080913400816017
:100420008093340080913400846080933400DF91A5
:10043000CF910895CFE5D4E0DEBFCDBF0E94F50196
:100440000E948B000E94760180E80E943A0180E6BB
:1004500090E00E9486010E9419030E94190381E026
:100460000E9447002AE030E0B9010E944603CB0118
:10047000909373008093720082E00E9447002AE00C
:1004800030E0B9010E944603CB0190937100809344
:10049000700083E00E9447002AE030E0B9010E942A
:1004A0004603CB01909375008093740080EC0E940A
:1004B0003A01809172000E94AB018DE690E00E94AB
:1004C0008601809170000E94AB018DE690E00E9451
:1004D0008601809174000E94AB01209174003091DC
:1004E00075008091700090917100282339238091CC
:1004F000740090917500822393238D33910580F0D1
:1005000080913500826080933500809135008F7D29
:1005100080933500809135008068809335009FCFAF
:100520002091720030917300809170009091710061
:10053000282339238091740090917500822393239E
:100540008233910518F120917200309173008091EF
:10055000700090917100282339238091740090914C
:100560007500822393238D33910580F480913500AB
:100570008D7F80933500809135008F7D809335008D
:100580008091350080688093350069CF209172009A
:10059000309173008091700090917100282339236D
:1005A0008091740090917500822393238E31910580
:1005B00018F1209172003091730080917000909139
:1005C0007100282339238091740090917500822353
:1005D00093238333910580F4809135008D7F809340
:1005E0003500809135008062809335008091350020
:1005F00080688093350033CF80913500806280938E
:100600003500809135008695817080958170982F96
:10061000990F809135008D7F892B809335008091D3
:1006200035008068809335000E94D4010E94D40177
:1006300016CFCF93DF93CDB7DEB722970FB6F894DE
:10064000DEBF0FBECDBF1A82198289819A812AEE40
:100650008136920730F489819A8101969A83898341
:10066000F4CF22960FB6F894DEBF0FBECDBFDF9158
:10067000CF910895991B79E004C0991F961708F04F
:10068000961B881F7A95C9F780950895AA1BBB1BF6
:1006900051E107C0AA1FBB1FA617B70710F0A61B82
:1006A000B70B881F991F5A95A9F780959095BC01A3
:0406B000CD010895DB
:1006B40050312020205032202020503300202000B0
:00000001FF
