:100000000C942A000C9445000C9445000C94450077
:100010000C9445000C9445000C9445000C9445004C
:100020000C9445000C9445000C9445000C9445003C
:100030000C9445000C9445000C9445000C9445002C
:100040000C9445000C9445000C9445000C9445001C
:100050000C94450011241FBECFE5D4E0DEBFCDBF18
:1000600010E0A0E6B0E0E8E7F2E002C005900D92F3
:10007000AA36B107D9F710E0AAE6B0E001C01D9298
:10008000AA36B107E1F70C9447000C940000CEE5C6
:10009000D4E0DEBFCDBF0E945C0080E690E00E940D
:1000A000CC000E94F100898389818136D1F780E6F6
:1000B00090E00E94CC00F5CFCF93DF93CDB7DEB7B1
:1000C00080912A00886080932A0080912A008061B4
:1000D00080932A00809140008F7B80934000809124
:1000E00040008F7E80934000809140008F7D809300
:1000F000400080914000877F8093400080912A00DB
:100100008B7F80932A008091400084608093400020
:10011000809140008260809340001092400087E40C
:100120008093290080912A008F7780932A00809104
:100130002A008F7B80932A0080912A008F7D8093F4
:100140002A00DF91CF910895CF93DF93CDB7DEB72B
:1001500021970FB6F894DEBF0FBECDBF8983809183
:100160002B008072882309F4FACF898180932C00B8
:1001700080912B008074882309F4FACF80912B00A2
:10018000806480932B0021960FB6F894DEBF0FBEDB
:10019000CDBFDF91CF910895CF93DF93CDB7DEB779
:1001A00022970FB6F894DEBF0FBECDBF9A83898326
:1001B000E981FA818081882359F0E981FA8180817F
:1001C0000E94A40089819A8101969A838983F0CF45
:1001D00022960FB6F894DEBF0FBECDBFDF91CF9150
:1001E0000895CF93DF93CDB7DEB721970FB6F8947C
:1001F000DEBF0FBECDBF80912B008078882321F019
:1002000080912C00898301C01982898199272196C8
:100210000FB6F894DEBF0FBECDBFDF91CF9108952A
:10022000CF93DF93CDB7DEB722970FB6F894DEBF3A
:100230000FBECDBF0E94F1008983898199278295E5
:100240009295907F9827807F982720E0820F89835E
:100250000E94F1008A838A81982F90538981892B8B
:100260008A838A81992722960FB6F894DEBF0FBE43
:08027000CDBFDF91CF9108958D
:0A027800534153494B414C41000033
:00000001FF
