:100000000C942A000C9445000C9445000C94450077
:100010000C9445000C9445000C9445000C9445004C
:100020000C9445000C9465000C9445000C9445001C
:100030000C9445000C9445000C9445000C9445002C
:100040000C9445000C9445000C9445000C9445001C
:100050000C94450011241FBECFE5D4E0DEBFCDBF18
:1000600010E0A0E6B0E0EAE8F1E002C005900D92F1
:10007000A036B107D9F710E0A0E6B0E001C01D92AC
:10008000A136B107E1F70C9491000C940000CF93D6
:10009000DF93CDB7DEB7809153008160809353002A
:1000A000809153008D7F8093530080915300846032
:1000B000809353008DE380935200809159008160BA
:1000C00080935900DF91CF91089578941F920F92F9
:1000D0000FB60F9211248F93CF93DF93CDB7DEB776
:1000E0008DE380935200809160008F5F8093600069
:1000F000DF91CF918F910F900FBE0F901F901895A9
:10010000CF93DF93CDB7DEB78091340080618093C9
:10011000340080913400806280933400DF91CF916D
:100120000895CFE5D4E0DEBFCDBF0E9447000E9416
:100130008000789410926000809160008431E0F338
:100140008091350082958695877081708095817049
:10015000982F9295990F907E809135008F7D892BF5
:10016000809335008091350082958F7081708095E5
:100170008170982F9295907F809135008F7E892B8A
:0A0180008093350010926000D7CF85
:00000001FF
