:100000000C942A000C9445000C9445000C94450077
:100010000C9445000C9445000C9445000C9445004C
:100020000C9445000C9445000C9445000C9445003C
:100030000C9445000C9445000C9445000C9445002C
:100040000C9445000C9445000C9445000C9445001C
:100050000C94450011241FBECFE5D4E0DEBFCDBF18
:1000600010E0A0E6B0E0E8E4F3E002C005900D92F5
:10007000AA36B107D9F710E0AAE6B0E001C01D9298
:10008000AA36B107E1F70C944F010C940000CF930E
:10009000DF93CDB7DEB722970FB6F894DEBF0FBE61
:1000A000CDBF1A82198289819A8123E0893E920705
:1000B00030F489819A8101969A838983F4CF2296BC
:1000C0000FB6F894DEBF0FBECDBFDF91CF9108957C
:1000D000CF93DF93CDB7DEB7809135008B7F8093D0
:1000E0003500809135008460809335000E94470080
:1000F000809135008B7F80933500DF91CF910895FB
:10010000CF93DF93CDB7DEB721970FB6F894DEBF5C
:100110000FBECDBF8983898180933B0080913500DC
:100120008E7F809335000E94680021960FB6F89468
:10013000DEBF0FBECDBFDF91CF910895CF93DF9388
:10014000CDB7DEB721970FB6F894DEBF0FBECDBF97
:100150008983898180933B00809135008160809301
:1001600035000E94680021960FB6F894DEBF0FBEDE
:10017000CDBFDF91CF910895CF93DF93CDB7DEB799
:1001800088E30E9480008CE00E94800081E00E9451
:100190008000DF91CF910895CF93DF93CDB7DEB785
:1001A00022970FB6F894DEBF0FBECDBF9A83898326
:1001B000E981FA818081882359F0E981FA8180817F
:1001C0000E949E0089819A8101969A838983F0CF4B
:1001D00022960FB6F894DEBF0FBECDBFDF91CF9150
:1001E0000895CF93DF93CDB7DEB723970FB6F8947A
:1001F000DEBF0FBECDBF898389819AE0692F0E943F
:100200009801805D8A8389819AE0692F0E94980114
:10021000892F805D8B838A810E949E008B810E9442
:100220009E0023960FB6F894DEBF0FBECDBFDF91C0
:10023000CF910895CF93DF93CDB7DEB722970FB656
:10024000F894DEBF0FBECDBF1A82198289819A81D0
:1002500023EC8135920730F489819A8101969A8343
:100260008983F4CF22960FB6F894DEBF0FBECDBFC0
:10027000DF91CF910895CF93DF93CDB7DEB78FEFA6
:1002800080933A00809134008160809334008091A3
:100290003400846080933400DF91CF910895CEE5DF
:1002A000D4E0DEBFCDBF19820E943B010E94BC009A
:1002B00080E80E94800080E690E00E94CC000E94CE
:1002C0001A010E941A0180EC0E94800089810E941C
:1002D000F1000E9477010E9477010E9477018981D5
:1002E0008F5F89838981843671F71982ECCFCF9330
:1002F000DF93CDB7DEB722970FB6F894DEBF0FBEFF
:10030000CDBF1A82198289819A812AEE813692079D
:1003100030F489819A8101969A838983F4CF229659
:100320000FB6F894DEBF0FBECDBFDF91CF91089519
:10033000991B79E004C0991F961708F0961B881F37
:080340007A95C9F78095089534
:0A0348005550434F554E54455200E6
:00000001FF
