:100000000C9446000C9463000C9463000C94630001
:100010000C9463000C9463000C9463000C946300D4
:100020000C9463000C9463000C9463000C946300C4
:100030000C9463000C9463000C9463000C946300B4
:100040000C9463000C9463000C9463000C946300A4
:100050000C9463000C9463000C9463000C94630094
:100060000C9463000C9463000C9463000C94630084
:100070000C9463000C9463000C9463000C94630074
:100080000C9463000C9463000C94630011241FBE55
:10009000CFEFD0E1DEBFCDBF11E0A0E0B1E0EAE6F6
:1000A000F3E000E00BBF02C007900D92A030B10753
:1000B000D9F711E0A0E0B1E001C01D92A230B10774
:1000C000E1F70C9465000C940000CDEFD0E1DEBFA9
:1000D000CDBF0E9483010E940D0181E00E94C900F2
:1000E0009A83898389819A818436910558F4809115
:1000F0003500806180933500809135008F7D80933D
:100100003500EBCF89819A818436910588F0898109
:100110009A8121E0843F920758F4809135008061F4
:100120008093350080913500806280933500D5CF73
:1001300089819A8121E0843F920788F089819A81A0
:1001400023E0883E920758F4809135008F7E80939B
:10015000350080913500806280933500BECF80915C
:1001600035008061809335008091350082958695B9
:100170008770817080958170982F9295990F907EED
:10018000809135008F7D892B809335000E949401EA
:10019000A4CFCF93DF93CDB7DEB725970FB6F894F2
:1001A000DEBF0FBECDBF89831D821C8289810E9464
:1001B000660180912600806480932600809126004D
:1001C0008071882309F4FACF809124008B83809179
:1001D00025008A83809126008061809326008A8191
:1001E00099279D838C838C819D81982F88279D835F
:1001F0008C838B81282F33278C819D81822B932B9D
:100200009D838C838C819D8125960FB6F894DEBFEB
:100210000FBECDBFDF91CF910895CF93DF93CDB7C0
:10022000DEB78091260080688093260080912600AA
:100230008F7D8093260080912600877F8093260003
:1002400087E00E94290181E00E944601DF91CF9161
:100250000895CF93DF93CDB7DEB721970FB6F8940B
:10026000DEBF0FBECDBF89838981982F97708091A3
:100270002600887F892B8093260021960FB6F8945C
:10028000DEBF0FBECDBFDF91CF910895CF93DF9337
:10029000CDB7DEB721970FB6F894DEBF0FBECDBF46
:1002A00089838981982F9295990F990F907C8091DD
:1002B00027008F73892B8093270021960FB6F8941F
:1002C000DEBF0FBECDBFDF91CF910895CF93DF93F7
:1002D000CDB7DEB721970FB6F894DEBF0FBECDBF06
:1002E00089838981982F9F7180912700807E892B37
:1002F0008093270021960FB6F894DEBF0FBECDBFC6
:10030000DF91CF910895CF93DF93CDB7DEB7809182
:100310003400806180933400809134008062809347
:100320003400DF91CF910895CF93DF93CDB7DEB73F
:1003300022970FB6F894DEBF0FBECDBF1A82198286
:1003400089819A812AEE8136920730F489819A81D7
:1003500001969A838983F4CF22960FB6F894DEBF74
:0A0360000FBECDBFDF91CF910895CD
:00000001FF
