:100000000C9446000C9465000C9465000C946500FB
:100010000C9465000C9465000C9465000C946500CC
:100020000C9465000C9465000C9465000C946500BC
:100030000C9465000C9465000C9465000C946500AC
:100040000C9465000C9465000C9465000C9465009C
:100050000C9465000C9465000C9465000C9465008C
:100060000C9465000C9465000C9465000C9465007C
:100070000C9465000C9465000C9465000C9465006C
:100080000C9465000C9465000C94650011241FBE4F
:10009000CFEFD0E1DEBFCDBF11E0A0E0B1E0EEE1F7
:1000A000F5E000E00BBF02C007900D92A631B1074A
:1000B000D9F711E0A6E1B1E001C01D92A631B10768
:1000C000E1F70E9467000C948E020C940000CF931D
:1000D000DF93CDB7DEB722970FB6F894DEBF0FBE21
:1000E000CDBF0E9430020E94D1000E94450280E8EC
:1000F0000E946B0180E091E00E94550282E00E9424
:100100008B009A83898380EC0E946B0189819A819C
:100110000E94C701ECCFCF93DF93CDB7DEB7259711
:100120000FB6F894DEBF0FBECDBF8D831A82198241
:100130008D810E942C01E6E2F0E080818064808362
:10014000E6E2F0E0808180718823D1F3E4E2F0E020
:1001500080818B83E5E2F0E080818C83E6E2F0E051
:100160008081806180838C8199279A8389838981AA
:100170009A81982F88279A8389838B81282F332708
:1001800089819A81822B932B9A83898389819A8191
:1001900025960FB6F894DEBF0FBECDBFDF91CF918D
:1001A0000895CF93DF93CDB7DEB7E6E2F0E080812C
:1001B00080688083E6E2F0E080818F7D8083E6E2E4
:1001C000F0E08081877F808387E00E94ED0081E0FE
:1001D0000E940B01DF91CF910895CF93DF93CDB7AC
:1001E000DEB721970FB6F894DEBF0FBECDBF89836F
:1001F000E6E2F0E089818770982F97708081887F90
:10020000892B808321960FB6F894DEBF0FBECDBF39
:10021000DF91CF910895CF93DF93CDB7DEB72197CC
:100220000FB6F894DEBF0FBECDBF8983E7E2F0E0E2
:1002300089818370982F9295990F990F907C808176
:100240008F73892B808321960FB6F894DEBF0FBE83
:10025000CDBFDF91CF910895CF93DF93CDB7DEB7B8
:1002600021970FB6F894DEBF0FBECDBF8983E7E2BA
:10027000F0E089818F71982F9F718081807E892B1A
:10028000808321960FB6F894DEBF0FBECDBFDF91FD
:10029000CF910895CF93DF93CDB7DEB722970FB6F6
:1002A000F894DEBF0FBECDBF1A82198205C08981C6
:1002B0009A8101969A83898389819A8121E0843F7A
:1002C0009207A8F322960FB6F894DEBF0FBECDBFFB
:1002D000DF91CF910895CF93DF93CDB7DEB721970C
:1002E0000FB6F894DEBF0FBECDBF8983E2E3F0E026
:1002F00089818083E5E3F0E080818E7F8083E5E380
:10030000F0E080818B7F8083E5E3F0E08081846092
:1003100080830E944A01E5E3F0E080818B7F808347
:1003200021960FB6F894DEBF0FBECDBFDF91CF91FF
:100330000895CF93DF93CDB7DEB721970FB6F8942A
:10034000DEBF0FBECDBF8983E2E3F0E08981808309
:10035000E5E3F0E0808181608083E5E3F0E0808187
:100360008B7F8083E5E3F0E08081846080830E945E
:100370004A01E5E3F0E080818B7F808321960FB610
:10038000F894DEBF0FBECDBFDF91CF910895CF931C
:10039000DF93CDB7DEB726970FB6F894DEBF0FBE5A
:1003A000CDBF9E838D832D813E81C901880F991F0A
:1003B000880F991F820F931F9E838D838D819E814D
:1003C00028EE33E0B9010E947A02CB01805D8C8374
:1003D0008D819E8128EE33E0B9010E947A029E83CE
:1003E0008D838D819E8124E630E0B9010E947A02DE
:1003F000CB01805D8B838D819E8124E630E0B90145
:100400000E947A029E838D838D819E812AE030E056
:10041000B9010E947A02CB01805D8A838D819E8121
:100420002AE030E0B9010E947A02805D89838C81E4
:100430000E9499018EE20E9499018B810E9499018C
:100440008A810E9499018FE091E00E9455022696D0
:100450000FB6F894DEBF0FBECDBFDF91CF910895E8
:10046000CF93DF93CDB7DEB7E1E3F0E08FEF80838A
:10047000E4E3F0E0808181608083E4E3F0E0808168
:1004800084608083DF91CF910895CF93DF93CDB7C0
:10049000DEB788E30E946B018CE00E946B0181E073
:1004A0000E946B01DF91CF910895CF93DF93CDB779
:1004B000DEB722970FB6F894DEBF0FBECDBF9A838A
:1004C00089830AC0E981FA8180810E94990189812A
:1004D0009A8101969A838983E981FA8180818823B0
:1004E00089F722960FB6F894DEBF0FBECDBFDF911D
:1004F000CF910895AA1BBB1B51E107C0AA1FBB1FC8
:10050000A617B70710F0A61BB70B881F991F5A959F
:0E051000A9F780959095BC01CD010895FFCF0D
:10051E005361736920566F6C746D65746572005605
:06052E006F6C7473000005
:00000001FF
