:100000000C9446000C9463000C9463000C94630001
:100010000C9463000C9463000C9463000C946300D4
:100020000C9463000C9463000C9463000C946300C4
:100030000C9463000C9463000C9463000C946300B4
:100040000C9463000C9463000C9463000C946300A4
:100050000C9463000C9463000C9463000C94630094
:100060000C9463000C9463000C9463000C94630084
:100070000C9463000C9463000C9463000C94630074
:100080000C9463000C9463000C94630011241FBE55
:10009000CFEFD0E1DEBFCDBF11E0A0E0B1E0ECE5F5
:1000A000F1E000E00BBF02C007900D92A030B10755
:1000B000D9F711E0A0E0B1E001C01D92A030B10776
:1000C000E1F70C9465000C940000CFEFD0E1DEBFA7
:1000D000CDBF0E94A1000E947200789480E090E061
:1000E0000C94AD00CF93DF93CDB7DEB782E380935E
:1000F0005C00809153008064809353008091530092
:10010000886080935300809153008E7F80935300CA
:10011000809153008D7F80935300809153008460C1
:100120008093530010925200809153008F7E8093F1
:10013000530080915300806280935300DF91CF91F0
:100140000895CF93DF93CDB7DEB7809137008860F5
:0C01500080933700DF91CF910895FFCF1E
:00000001FF
