:100000000C942A000C941E010C9445000C9445009D
:100010000C9445000C9445000C9445000C9445004C
:100020000C9445000C9445000C9445000C9445003C
:100030000C9445000C9445000C9445000C9445002C
:100040000C9445000C9445000C9445000C9445001C
:100050000C94450011241FBECFE5D4E0DEBFCDBF18
:1000600010E0A0E6B0E0E8E6F2E002C005900D92F4
:10007000A036B107D9F710E0A0E6B0E001C01D92AC
:10008000A136B107E1F70C9477000C940000CF93F0
:10009000DF93CDB7DEB78FEF8093370080913200CA
:1000A000846080933200DF91CF910895CF93DF93E6
:1000B000CDB7DEB722970FB6F894DEBF0FBECDBF27
:1000C0001A82198289819A8125E78133920734F453
:1000D00089819A8101969A838983F4CF22960FB6FB
:1000E000F894DEBF0FBECDBFDF91CF910895CFE56D
:1000F000D4E0DEBFCDBF0E9447000E9405018FEF14
:10010000809338001092600080916000882309F489
:10011000FBCF109260001092380080915B008F7BC3
:1001200080935B000E9456000E94560080915B0005
:10013000806480935B00E8CFCF93DF93CDB7DEB7C9
:1001400024970FB6F894DEBF0FBECDBF9A83898384
:100150007C836B8380915B00829586958695837006
:100160008170282F332789819A812817390751F404
:100170008B81982F9370809155008C7F892B809371
:1001800055003AC080915B00881F8827881F282F60
:10019000332789819A812817390761F48B8183700D
:1001A000982F990F990F80915500837F892B809309
:1001B000550022C080915B00829586958770817082
:1001C000282F332789819A8128173907A9F48B8131
:1001D0009C818230910531F4809154008F7B809313
:1001E00054000AC08B819C818330910529F4809151
:1001F000540080648093540024960FB6F894DEBFB8
:100200000FBECDBFDF91CF910895CF93DF93CDB7D0
:10021000DEB7789480915B00806480935B0080916E
:100220005B0082958695869583708170992762E040
:1002300070E00E949C00DF91CF91089578941F9206
:100240000F920FB60F9211248F93CF93DF93CDB7F8
:10025000DEB781E080936000DF91CF918F910F90A6
:080260000FBE0F901F901895CE
:00000001FF
