:100000000C942A000C9445000C9445000C94450077
:100010000C9445000C9445000C9445000C9445004C
:100020000C9445000C9445000C9445000C9445003C
:100030000C9445000C9445000C9445000C9445002C
:100040000C9445000C9445000C9445000C9445001C
:100050000C94450011241FBECFE5D4E0DEBFCDBF18
:1000600010E0A0E6B0E0E4E4F3E002C005900D92F9
:10007000A036B107D9F710E0A0E6B0E001C01D92AC
:10008000A236B107E1F70C9458000C940000CF930E
:10009000DF93CDB7DEB78091340080618093340068
:1000A00080913400806280933400DF91CF91089575
:1000B000CFE5D4E0DEBFCDBF0E944700809126008F
:1000C000877F809326008091260080688093260099
:1000D00087E090E00E94D40081E090E00E94F2006E
:1000E00081E090E00E94130180912600806480935B
:1000F0002600809126008071882309F4FACF809130
:1001000026008061809326000E9431019093610057
:100110008093600080916000909161008436910529
:1001200058F4809135008F7E8093350080913500A2
:10013000806280933500D4CF8091600090916100FF
:100140008436910598F0809160009091610021E0E3
:10015000843F920758F48091350080618093350088
:1001600080913500806280933500BACF8091600025
:100170009091610021E0843F920798F080916000A7
:100180009091610023E0883E920758F480913500F9
:10019000806180933500809135008F7D809335009C
:1001A0009FCF0E9482019CCFCF93DF93CDB7DEB764
:1001B00022970FB6F894DEBF0FBECDBF9A83898316
:1001C0008981982F977080912600887F892B809352
:1001D000260022960FB6F894DEBF0FBECDBFDF918A
:1001E000CF910895CF93DF93CDB7DEB722970FB6A7
:1001F000F894DEBF0FBECDBF9A8389838981982F83
:100200009295990F990F907C809127008F73892B7D
:100210008093270022960FB6F894DEBF0FBECDBFA5
:10022000DF91CF910895CF93DF93CDB7DEB72297BB
:100230000FB6F894DEBF0FBECDBF9A838983898144
:10024000982F9F7180912700807E892B80932700B3
:1002500022960FB6F894DEBF0FBECDBFDF91CF91CF
:100260000895CF93DF93CDB7DEB724970FB6F894F8
:10027000DEBF0FBECDBF1A821982809124008B830E
:10028000809125008C838C8199279A838983898129
:100290009A81982F88279A8389838B81282F3327E7
:1002A00089819A81822B932B9A83898389819A8170
:1002B00024960FB6F894DEBF0FBECDBFDF91CF916D
:1002C0000895CF93DF93CDB7DEB722970FB6F8949A
:1002D000DEBF0FBECDBF1A82198289819A812EE4BA
:1002E0008132920730F489819A8101969A838983B9
:1002F000F4CF22960FB6F894DEBF0FBECDBFDF91CC
:10030000CF910895CF93DF93CDB7DEB780913500BD
:100310008F7E809335008091350082958695877019
:10032000817080958170982F9295990F907E809121
:1003300035008F7D892B809335000E946101DF910C
:04034000CF910895BC
:00000001FF
