:100000000C942A000C9445000C9445000C94450077
:100010000C9445000C9445000C9445000C9445004C
:100020000C9445000C9445000C9445000C9445003C
:100030000C9445000C9445000C9445000C9445002C
:100040000C9445000C9445000C9445000C9445001C
:100050000C94450011241FBECFE5D4E0DEBFCDBF18
:1000600010E0A0E6B0E0EAEDF3E002C005900D92EA
:10007000AA36B107D9F710E0AAE6B0E001C01D9298
:10008000AA36B107E1F70C948C010C940000CF93D1
:10009000DF93CDB7DEB722970FB6F894DEBF0FBE61
:1000A000CDBF1A82198289819A8123E0893E920705
:1000B00030F489819A8101969A838983F4CF2296BC
:1000C0000FB6F894DEBF0FBECDBFDF91CF9108957C
:1000D000CF93DF93CDB7DEB7809135008B7F8093D0
:1000E0003500809135008460809335000E94470080
:1000F000809135008B7F80933500DF91CF910895FB
:10010000CF93DF93CDB7DEB722970FB6F894DEBF5B
:100110000FBECDBF9A838983898180933B008091F4
:1001200035008E7F809335000E94680022960FB6BE
:10013000F894DEBF0FBECDBFDF91CF910895CF936E
:10014000DF93CDB7DEB722970FB6F894DEBF0FBEB0
:10015000CDBF9A838983898180933B00809135004C
:100160008160809335000E94680022960FB6F89453
:10017000DEBF0FBECDBFDF91CF910895CF93DF9348
:10018000CDB7DEB788E390E00E9480008CE090E07D
:100190000E94800081E090E00E948000DF91CF917A
:1001A0000895CF93DF93CDB7DEB722970FB6F894BB
:1001B000DEBF0FBECDBF9A838983E981FA8180813A
:1001C000882371F0E981FA818081992787FD9095D4
:1001D0000E949F0089819A8101969A838983EDCF3D
:1001E00022960FB6F894DEBF0FBECDBFDF91CF9140
:1001F0000895CF93DF93CDB7DEB726970FB6F89467
:10020000DEBF0FBECDBF9A83898389819A8128EE94
:1002100033E0B9010E94D901CB01805D8B838981D4
:100220009A8128EE33E0B9010E94D9019A8389832B
:1002300089819A8124E630E0B9010E94D901CB017D
:10024000805D8C8389819A8124E630E0B9010E9427
:10025000D9019A83898389819A812AE030E0B901A2
:100260000E94D901CB01805D8D8389819A812AE02A
:1002700030E0B9010E94D901805D8E838B8199277E
:100280000E949F008C8199270E949F008D81992751
:100290000E949F008E8199270E949F0026960FB68C
:1002A000F894DEBF0FBECDBFDF91CF910895CF93FD
:1002B000DF93CDB7DEB722970FB6F894DEBF0FBE3F
:1002C000CDBF1A82198289819A8123EC81359207E8
:1002D00030F489819A8101969A838983F4CF22969A
:1002E0000FB6F894DEBF0FBECDBFDF91CF9108955A
:1002F000CF93DF93CDB7DEB78FEF80933A00809135
:100300003400816080933400809134008460809355
:100310003400DF91CF910895CDE5D4E0DEBFCDBFAD
:100320001A8219820E9478010E94BE0080E890E043
:100330000E94800080E690E00E94D1000E94570158
:1003400080EC90E00E94800089819A810E94F900EF
:100350000E94B80189819A8101969A838983898153
:100360009A8127E28F30920759F71A821982E8CFD3
:10037000CF93DF93CDB7DEB722970FB6F894DEBFE9
:100380000FBECDBF1A82198289819A812AEE8136E9
:10039000920730F489819A8101969A838983F4CFF8
:1003A00022960FB6F894DEBF0FBECDBFDF91CF917E
:1003B0000895AA1BBB1B51E107C0AA1FBB1FA617AC
:1003C000B70710F0A61BB70B881F991F5A95A9F7FE
:0A03D00080959095BC01CD010895C1
:0A03DA005550434F554E5445520054
:00000001FF
