:100000000C9446000C9463000C9463000C94630001
:100010000C9463000C9463000C9463000C946300D4
:100020000C9463000C9463000C9463000C946300C4
:100030000C9463000C9463000C9463000C946300B4
:100040000C9463000C9463000C9463000C946300A4
:100050000C9463000C9463000C9463000C94630094
:100060000C9463000C9463000C9463000C94630084
:100070000C9463000C9463000C9463000C94630074
:100080000C9463000C9463000C94630011241FBE55
:10009000CFEFD0E1DEBFCDBF11E0A0E0B1E0EEE8F0
:1000A000F3E000E00BBF02C007900D92AC30B10747
:1000B000D9F711E0ACE0B1E001C01D92AC30B1075E
:1000C000E1F70C946D010C940000CF93DF93CDB752
:1000D000DEB722970FB6F894DEBF0FBECDBF1A82EF
:1000E000198289819A8121E0853F920730F48981C4
:1000F0009A8101969A838983F4CF22960FB6F89459
:10010000DEBF0FBECDBFDF91CF910895CF93DF93B8
:10011000CDB7DEB7809135008B7F8093350080911D
:1001200035008460809335000E9465008091350021
:100130008B7F80933500DF91CF910895CF93DF932C
:10014000CDB7DEB721970FB6F894DEBF0FBECDBF97
:100150008983898180933B00809135008E7F8093D5
:1001600035000E94860021960FB6F894DEBF0FBEC0
:10017000CDBFDF91CF910895CF93DF93CDB7DEB799
:1001800021970FB6F894DEBF0FBECDBF898389815A
:1001900080933B00809135008160809335000E9400
:1001A000860021960FB6F894DEBF0FBECDBFDF915B
:1001B000CF910895CF93DF93CDB7DEB788E30E9448
:1001C0009E008CE00E949E0081E00E949E00DF91D4
:1001D000CF910895CF93DF93CDB7DEB722970FB6B7
:1001E000F894DEBF0FBECDBF9A838983E981FA817F
:1001F0008081882359F0E981FA8180810E94BC00C6
:1002000089819A8101969A838983F0CF22960FB6CD
:10021000F894DEBF0FBECDBFDF91CF910895CF938D
:10022000DF93CDB7DEB723970FB6F894DEBF0FBECE
:10023000CDBF898389819AE0692F0E94BB01805DCF
:100240008A8389819AE0692F0E94BB01892F805D92
:100250008B838A810E94BC008B810E94BC00239604
:100260000FB6F894DEBF0FBECDBFDF91CF910895DA
:10027000CF93DF93CDB7DEB722970FB6F894DEBFEA
:100280000FBECDBF1A82198289819A8121E6893AEF
:10029000920730F489819A8101969A838983F4CFF9
:1002A00022960FB6F894DEBF0FBECDBFDF91CF917F
:1002B0000895CF93DF93CDB7DEB78FEF80933A00E9
:1002C0008091340081608093340080913400846098
:1002D00080933400DF91CF910895CDEFD0E1DEBF60
:1002E000CDBF83E690E09A8389830E9459010E94E2
:1002F000DA0080E80E949E0080E091E00E94EA001F
:100300000E94380180EC0E949E0089810E940F01AA
:100310000E949A010E949A0189819A8101979A8389
:10032000898389819A81009769F783E690E09A83AF
:100330008983E8CFCF93DF93CDB7DEB722970FB68F
:10034000F894DEBF0FBECDBF1A82198289819A81CF
:100350002AEE8136920730F489819A8101969A8338
:100360008983F4CF22960FB6F894DEBF0FBECDBFBF
:10037000DF91CF910895991B79E004C0991F9617DA
:0E03800008F0961B881F7A95C9F7809508959E
:0C038E00444F574E434F554E544552000B
:00000001FF
